S013000068656C6C6F5F776F726C642E7372656376
S113000078E4FF1F870500008505000085050000D2
S113001000000000000000000000000000000000DC
S11300200000000000000000000000008505000042
S113003000000000000000008505000085050000A8
S1130040870500008705000087050000870500007C
S113005000000000870500008705000087050000F8
S1130060870500008705000087050000870500005C
S1130070870500008705000087050000870500004C
S1130080870500008705000087050000870500003C
S113009087050000870500008705000000000000B8
S11300A0870500008705000087050000870500001C
S11300B08705000000000000870500008705000098
S1130400FFFFFFFFFFFFFFFFFFFFFFFFFEFFFFFFF9
S113041010B5094809494358094A1A408023DB04A6
S11304201343435000F05AFA0300E1210322490226
S1130430044801F030F810BD0070044004100000BE
S1130440FFFFFFF300A00640044A137838218B43D2
S1130450C0000840034313707047C0460040064084
S113046010B5104A104B1149D150114C200000F026
S113047067FC104B104A1A600020FFF7E5FF2200CA
S11304800F320021002000F035FF0022002102205D
S113049000F0FEFA2000143000F070F9074B084A0F
S11304A01A6010BD007004404410000000000310E6
S11304B06C3D00000CE0FF1F00127A0008E0FF1FF3
S11304C0006CDC0210B50D4A0D4B0E49D1500222CE
S11304D00121002000F0CEFE0B481C3000F04EF944
S11304E00A482A23037002F0C5F8084BDB78042B72
S11304F0FBD1074B074A1A6010BDC0460070044088
S113050044100000000003106C3D000000E00740B0
S113051008E0FF1F00093D0010B500F011F8FFF7D7
S11305209FFFFFF775FF054800F0D3FF01F014F8B3
S1130530FF23184000F0ECFFF8E7C046A43D00009C
S11305400B490A6880239B001A430A6009494A68D8
S1130550094802401A434A608A68024013438B6088
S11305600649074A8B58072083438B507047C0467F
S11305703880044000900440FFF8FFFF00700440FE
S113058010100000FEE710B5084B094A01E002CA4A
S113059002C308498B42FAD3074B01E0002204C38B
S11305A0064A9342FAD3FFF7B7FF10BD00E0FF1FDE
S11305B0984600000CE0FF1F0CE0FF1F78E0FF1FCF
S11305C010B582B00C00190000922300020002480A
S11305D000F07FFF00BEFDE7B43D000082B0054B94
S11305E0019300E0C046019B5A1E0192002BF9D1F1
S11305F002B0704730750000074B9B79DB0702D4CB
S1130600064B18687047044B1A7A520807231340A4
S1130610024A5068D840F5E70040064000E0FF1F5A
S1130620054B984204D9054B984203D8012000E0B9
S1130630002070470220FCE79798000000127A001F
S113064010B5054B1868002800D010BD034B044AB0
S1130650EE210448FFF7B4FF0CE0FF1FF43D000057
S11306608C3E0000003E000010B5FFF7E9FF0028B3
S113067017D00F490A78D20807231340D8404A7884
S1130680120992070DD0062B0CD003D8052B0DD8D8
S1130690400906E0072B03D10C2103F01DF900E00B
S11306A0002010BD142103F017F9FAE70020F8E741
S11306B00040064010B5054B9B79DB0602D5044B80
S11306C0186810BDFFF7D0FFFBE7C04600400640A6
S11306D000E0FF1F10B5FFF7B3FF10BD10B50A4BC4
S11306E01B785BB2002B0CDA084B1868002800D08A
S11306F010BD074A6221074B1832FF310648FFF745
S11307005FFF0020F4E7C046005006400CE0FF1FE6
S11307108C3E0000F43D0000003E000010B5124B7A
S11307201B689B0C03241C40022C0ED0032C18D0F5
S1130730002C02D00024200010BDFFF7CFFF80233F
S11307401B029842F7D10400F5E7084B5C68002CC3
S1130750F1D1074A7621074B3032FF310648FFF7C3
S11307602FFFFA24A400E6E7007004400CE0FF1F0A
S11307708C3E0000143E0000003E000030B50D4BDE
S11307800D4A4168995001780C4C1A590C4D2A4075
S1130790090480256D0229400A431A5141781A68D8
S11307A0084802408904C020000301400A431A603B
S11307B030BDC04600700440441000000410000026
S11307C0FFFFFEFFFFFFF3FF30B503001048026890
S11307D0104C22400260002B0CD10F490F4A8B5859
S11307E023408B5001200A4A11688023DB020B430B
S11307F0136030BD0A4A914208D00020064C0749D4
S11308006258084D2A4013436350ECE70120F5E792
S113081034800440FFFFFBFF00700440041000001C
S1130820006CDC02FFFFFAFF10B5104B5B789B07EE
S113083019D40E4B9B799B0601D5002014E0FFF7D9
S113084039FF002810D00949CA78520903231A40F5
S1130850C978C90953005B185B00054AD3184822BC
S11308609B5A584300E0002010BDC046004006409B
S11308708C3E000010B5044B1B789B0701D400206C
S113088010BDFFF7B9FEFBE70040064070B50E4B04
S11308909B795B0601D4002070BDFFF71BFF002885
S11308A00BD0094D29791F242140013103F014F89C
S11308B06B79234018335843EEE7044A044B58320B
S11308C004490548FFF77CFE004006408C3E0000CA
S11308D0243E000061020000003E000010B50A4AF8
S11308E00A4BD3581B0C0122110019401A4203D0A1
S11308F0012904D0002010BDFFF796FFFBE7FFF7A6
S1130900C5FF4008F7E7C04600700440041000002B
S113091010B50F4B9A79920803231340022B11D080
S113092008D8002B0BD0012B02D1FFF765FE0DE098
S113093000200BE0032B08D1FFF7A8FF06E0FFF728
S113094073FF03E0FFF77CFE00E0002010BDC0460B
S11309500040064010B5FFF7DBFF044A044BD158B2
S1130960090F013102F0B8FF10BDC0460070044009
S11309704410000070B5FFF7CBFF074D074C295911
S1130980090F013102F0A8FF2B591B0C0721194054
S1130990013102F0A1FF70BD00700440441000005A
S11309A070B5FFF7B5FF074D074C2959090F013101
S11309B002F092FF2B591B0C07211940013102F060
S11309C08BFF70BD007004404410000010B5FFF7A9
S11309D09FFF044A044BD158090F013102F07CFFF8
S11309E010BDC046007004404410000010B5FFF76D
S11309F061FE041E02D10024200010BDFFF788FF11
S1130A00C008A042F8D2F6E770B50C2836D88000AA
S1130A101B4B1B589F46FA20800008E0FFF778FF25
S1130A20184A194BD158090F013102F055FF70BD16
S1130A30FFF76EFF134D144C2959090F013102F0D1
S1130A404BFF2B591B0C07211940013102F044FFC5
S1130A50EDE7FFF743FFEAE7FFF760FEE7E7FFF79D
S1130A60C5FFE4E7FFF706FFE1E7FFF7DDFEDEE79A
S1130A70FFF70CFFDBE7FFF731FED8E70020D6E7EE
S1130A80383E00000070044044100000002070470D
S1130A9070B5204B9C79A40803252C409D79012630
S1130AA02E401D7A6D0807232B40934219D0002E47
S1130AB00ED0012C03D0174B1B789B0708D5154D7E
S1130AC06B780126B3436B70124B9B79DB07FBD425
S1130AD0104D2B7A2F26B3435200213E32401A4345
S1130AE02A720C4A53780125AB430D402B435370B3
S1130AF013780325AB4303431370012C01D0830700
S1130B0005D5044B9B79012213408B42F9D1002077
S1130B1070BDC04600400640F0B5D646474680B595
S1130B2085B007000E000292039300230093019303
S1130B30304BC218304B9A4253D8304902F0CCFEA5
S1130B40C4B22F492F4BF81802F0C6FEC3B29A461E
S1130B5001235B42984613E0013C029A1470183B4F
S1130B60039A13703EE00133DBB2372B06D8281802
S1130B70801B404502D2804601930094013CE4B2BC
S1130B8054451CD32100380002F0A6FE05000100E4
S1130B90300002F0A1FEC3B21A00173AD2B2202AE2
S1130BA0ECD8FF2210406843172BDCD98642D3D0FF
S1130BB0321A4245D7D2904601930094D3E7434674
S1130BC0013314D000994B1E029A1370019C230028
S1130BD0183B039A1370380002F07EFE4443200051
S1130BE000E0002005B0C0BCBA46B046F0BD00200D
S1130BF0F8E7C046807BE1FF805CD70580841E0057
S1130C0000093D00FF083D0010B5002817D04378C7
S1130C101F210B400E4A137153791F24A343847878
S1130C2021400B435371137901780B4340210B434B
S1130C30DBB21371064B9B795B06FBD510BD054AED
S1130C40C121054B6C3289000448FFF7B9FCC0464A
S1130C50004006408C3E0000303E0000003E000094
S1130C60104A137A20218B431372002803D153793D
S1130C708B435371704701280DD00A4A5378802161
S1130C8049420B43DBB25370064A537920210B438C
S1130C90DBB25371EEE7034A53787F210B40537064
S1130CA0F2E7C046004006400F4B80229A710028AC
S1130CB005D11A005B797F210B40537170470A4BB1
S1130CC05B7BDBB201280BD040221343DBB2064A24
S1130CD053735379802149420B43DBB25371EDE7DF
S1130CE040229343F3E7C046004006400B4A937901
S1130CF0DBB2127AD2070CD400209A0701D5022263
S1130D0010435AB2002A06DB5B0601D54023184380
S1130D1070470120F1E720221043F5E70040064028
S1130D20C30704D5054A137A20218B431372830623
S1130D3002D5024B80229A717047C046004006409B
S1130D4070B504000068FFF76BFC2379124A117830
S1130D500F25A9430B43137013785F210B40A1792E
S1130D600B4313700D4A53783C218B4300010C391B
S1130D70084003436079034353706379002B04D024
S1130D80054B1B785BB2002B00DB70BD034B9B79DA
S1130D909B07FBD5F9E7C0460050064000400640DB
S1130DA0044B00221A70044A53783C218B4353703D
S1130DB07047C0460050064000400640F8B50600A3
S1130DC017001D002F4BC2182F4B9A4252D8EB002C
S1130DD02E4A9B588B424FD8EA002C4B9B185B68D9
S1130DE08B424BD32A4B9B79DB0649D402F074FD2A
S1130DF0010042001218D3009B1A012D2BD0DAB245
S1130E002348C2721B0ADBB28372047A41229443E0
S1130E10AA0140239C461300624613402343202228
S1130E201A43D2B29446602252421343DBB2037295
S1130E30174C247A64B2002CFADB154B1B7A9B0600
S1130E400FD4300002F048FD3860012D0ED0114B54
S1130E50186000200FE042001218D3009B1ADB0137
S1130E60CDE70B4B62461A720B4804E0094B5860FD
S1130E70002000E00948F8BD0948FCE70848FAE703
S1130E800848F8E700EE85FF00127A000C3F0000E6
S1130E900040064000E0FF1FD5070000D207000015
S1130EA0D3070000D407000010B51A4CA2799208A9
S1130EB003231340A17909090120014062785208F3
S1130EC00240A47964092040022B16D009D8002BD3
S1130ED00BD0012B03D1002A0DD1012004E00820FE
S1130EE002E0032B0FD1072010BD002901D0002000
S1130EF0FAE70320F8E70220F6E7002A05D10028E4
S1130F0005D00620F0E70820EEE70520ECE70420F2
S1130F10EAE7C04600400640F8B5194DEC78E4B263
S1130F20AB79DB062AD4EB7820267340DBB2EB7076
S1130F300126134D2B783B273B4004273B43DBB270
S1130F402B700F4B9B79DB06FBD5002E01D00C4B8D
S1130F50DC701F232340C001C0B24901602421403A
S1130F6008431843064BD870054B9B799B089B0795
S1130F70FAD1002A00D090470020F8BD0026D8E717
S1130F8000400640F0B5C64600B50C009046214D21
S1130F90EE78F6B2A979CA063AD5E97820277940DD
S1130FA0C9B2E97001211B4F3D7803221540C000EE
S1130FB035321040284338707878420703D51548F5
S1130FC080798007FBD513488079C006FBD40029BB
S1130FD001D01049CE701F213140E401E4B24246F1
S1130FE0520160200240144321430A4AD170094A45
S1130FF0D278D2B28A42FAD1064A927992089207FA
S1131000FAD1002B00D09847002080BCB846F0BD30
S11310100021C8E700400640F8B51D4BDD78EDB26D
S11310205C780226B4435C709B79DB062DD4184CA3
S1131030E37820267340DBB2E3700126144C237856
S11310403B273B4044273B43DBB22370104B9B7947
S1131050DB06FBD5002E01D00D4BDD700C4B9C79CB
S1131060A40803232340012BF8D11E331D40C001E3
S1131070C0B249014133194008432843044BD87096
S1131080002A00D090470020F8BD0026D6E7C046CD
S11310900040064070B522494A794024A2434A716F
S11310A01F4A92799206FBD41D4A51780224A14327
S11310B05170D178C9B29279D2062ED5184CE27803
S11310C020256A40D2B2E2700124154D2A78032605
S11310D03240C00035363040104380225242024331
S11310E0D2B22A706A78520703D50D4A92799207D0
S11310F0FBD50B4A9279D206FBD4002C01D0084AC6
S1131100D170074A9179890803220A40022AF8D14A
S1131110002B00D09847002070BD0024D5E7C046BE
S113112000400640034A537802210B43DBB253705C
S11311300020704700400640034A537802210B43C5
S1131140DBB25370002070470040064010B5081E03
S113115029D0194A537802218B43537013783931BB
S1131160194080235B420B43DBB21370124B9B7913
S11311701C221340082BF9D10F4A537940218B4389
S113118053710D4B9B799B06FBD4FFF73DFD0A4A37
S1131190537940210B43DBB25371074B9B799B0678
S11311A0FBD5002010BD054AAE21054B1032C90005
S11311B00448FFF705FAC046004006400C3F000013
S11311C0303E0000003E0000064A13783F210B40E9
S11311D01370044B9A79920803231340032BF8D11C
S11311E000207047004006400F4A537802218B4389
S11311F0537013783D31194080235B420B43DBB2BB
S11312001370094B9A79920803231340022BF8D1E7
S1131210054A537940218B435371034B9B799B06B9
S1131220FBD400207047C046004006400A4A537869
S113123002218B43537013783D310B4040210B4303
S1131240DBB21370044B9A79920803231340012BE9
S1131250F8D100207047C0460040064010B5FFF7A3
S11312605BFE10BD10B5080011001A00029BFFF7C9
S113127089FE10BD10B5030010001A00FFF708FC2A
S11312800B4A13783F210B4040210B43DBB2137010
S1131290074B9A79920803231340012BF8D1044A8F
S11312A0537802210B43DBB25370002010BDC046BB
S11312B0004006400E4A13783B21194080235B42CC
S11312C00B43DBB2137053785B0703D5084B9B7950
S11312D09B07FBD5064B9B791C221340082BF9D1A5
S11312E0034A537802210B43DBB25370002070474A
S11312F00040064010B50800111E0FD0FFF726FF6E
S11313000A4A13783F210B401370084B9A799208CC
S113131003231340032BF8D1002010BD044A054BCE
S1131320243205490548FFF74BF9C0460040064002
S11313300C3F0000303E000019060000003E000093
S113134070B505003F4B9A79920803231340012B93
S113135009D0EA78A9786878FFF79AFBFFF7A4FD2B
S11313600400002615E0374A537802218B4353705A
S113137041798079344AFFF7CFFDEAE76979A879A2
S1131380314AFFF7C9FD0600002E55D12B78A34240
S11313904AD02A78E0002D4C2418A4183823E45CA1
S11313A0072CF1D8A3002A49CB589F466A79A9791A
S11313B02879254BFFF7E6FD0600E5E76979A8796A
S11313C00022FFF729FE0600DEE76A79A979287969
S11313D00023FFF75FFE0600D6E7FFF7A3FE060033
S11313E0D2E7FFF7A9FE0600CEE7063AD2B2012AF9
S11313F010D914490B783F221A4080235B421343CF
S1131400DBB20B700F4B9A79920803231340022B23
S1131410F8D1B9E7E91D0020FFF798FE0600B3E70D
S1131420FFF7D2FE0600AFE7EB795B0606D4054A68
S1131430137940218B431371300070BDE81DFFF711
S1131440E3FBF9E700400640DD0500000C3F000027
S11314506C3E0000F8B5CE46474680B507000C0048
S113146091469846002506E023684A46FA542368C4
S1131470591C21600135454509DA21684E1C7F2E2F
S1131480F2D9380000F0E9F900232360ECE7C0BC8E
S1131490B946B046F8BD10B50C00111E03D02200A9
S11314A000F0B6F910BD034B034A69310348FFF756
S11314B087F8C046843F0000CC3F0000B03F0000E6
S11314C010B500F0B4F9002010BD10B500F0B3F968
S11314D010BD0FB430B5A3B026AC20CC00230193CB
S11314E07C22002102A802F0BFFB2194074B01AA31
S11314F02100280001F0AEF9010001A800F0ADF9C7
S113150023B030BC08BC04B01847C04655140000D2
S113151000B583B00190012101A800F09EF903B049
S113152000BD0FB430B589B00CAC20CC00230193BE
S11315301122002102A802F097FB142101A800F057
S11315409FF907942200290001A801F080FA09B04C
S113155030BC08BC04B0184710B582B06B46DC1D23
S1131560200000F0CBF9207802B010BD10B50300C4
S113157008001400002907D0013B012B07D81100F3
S113158000F06BF9200010BD01204042FBE7012070
S11315904042F8E710B5030008001100002B02D107
S11315A000F06EF910BD01204042FBE710B51C228B
S11315B0014902F007FB10BDDC3F000010B5002814
S11315C00AD04368002B04D04068FFF7EFFF0020E7
S11315D010BD024B4360F7E70420F9E714E0FF1F56
S11315E00378002B0AD04378002B1DD00F4AD16812
S11315F080231B020B43D360002070470B4AD3683F
S11316000B490B40D3604378002B06D1D16880236B
S1131610DB010B43D3600020EFE7044AD36805499C
S11316200B40D3600020E8E77820E6E7003000F0C4
S1131630FF7FFFFFFFBFFFFF10B504000222002160
S113164002F012FB064BDB681A0404D50123237055
S11316506370002010BD5B04FBD401236370F8E7C2
S1131660003000F010B544680134802101230A22BF
S1131670C9000148A04710BD0C3000F010B5002986
S113168001D0002010BDFFF7EDFFFAE730B585B0BB
S11316900D00140000280CD003791F4A137101684F
S11316A01160032B21D0062B09D0012B07D005B0E4
S11316B030BD1A4B1A4AFF211A48FEF781FF01A8D0
S11316C001F070FC0195144D220001A9286801F075
S11316D0B5FB2A68D37808210B43DBB2D370D378E7
S11316E004210B43DBB2D370E1E701A800F07CFADC
S11316F00195094D220001A9286800F0A1F92A6882
S1131700D37808210B43DBB2D370D37804210B4385
S1131710DBB2D370CBE7C04654E0FF1FF83F0000B4
S1131720184000000440000010B50E4B1B79002B3C
S113173010D0032B10D0062B05D0012B03D0094B5E
S113174000221A7103E0074B186801F00FFC054BE7
S113175000221A71002010BD024B186800F034FA00
S1131760F5E7C04654E0FF1F10B50B4B1B79012B66
S113177003D0032B08D0002010BD074B186801F0DC
S1131780E5FD4306F9D5F6E7034B186800F0F6FAD1
S11317904306F9D5EFE7C04654E0FF1F10B5040037
S11317A0154B1B79032B16D0062B03D0012B01D02C
S11317B0012010BD002A07D00F4B18680A00210031
S11317C001F0E6FD0020F4E70B4B18680A00210045
S11317D001F0ECFDEDE7002A07D0074B18680A007A
S11317E0210000F02FFC0020E3E7034B18680A00F7
S11317F0210000F045FCDCE754E0FF1F10B5002297
S11318000121FFF7CBFF002800D110BD0120FCE728
S113181010B582B00C0011001A0000906B461C71C8
S113182000236846FFF732FF002002B010BD10B558
S1131830FFF77AFF10BD10B5FFF796FF002010BD2B
S113184010B50C1E07D0002805D00122FFF7A6FF13
S1131850002800D00024200010BD10B5002802D0BC
S1131860FFF7EEFF10BD4021024B034AFF3103484E
S1131870FEF7A6FE204000004C4000002C40000073
S1131880F0B583B007000E00002801D000240DE05D
S1131890174AB221174B0C3249001748FEF790FE45
S11318A0002C12D100232B70013C01340194B4426A
S11318B00BD23D192800FFF7A1FF002814D12B7883
S11318C00D2BEDD00A2BF0D1EAE7019BB34207D0F0
S11318D0019E0136BF1900233B70200003B0F0BD08
S11318E0FE1800233370F8E701246442F5E7C0468C
S11318F04C400000204000002C40000010B500289F
S113190005D0FFF77BFF002809D1013010BD054A3F
S1131910CB21054B1C3249000448FEF751FE01203F
S11319204042F3E74C400000404000002C400000DF
S113193010B5002901D0002308E0064B064AB43153
S11319400648FEF73DFEC479CC5401339342FAD3E2
S113195010BDC0467C4000001441000084400000DB
S113196010B5002901D0002309E0064A064B1832BD
S1131970C2310648FEF724FECC5CC47101339342A5
S1131980FAD310BD144100007C40000084400000E4
S113199010B503000020002802D0002805D110BD96
S11319A0054A9342F9D00130F5E7044A044B30323A
S11319B089210448FEF704FE00A0064014410000FB
S11319C0984000008440000010B500280CD0428CE0
S11319D092B2038C9BB29A420DD9038CC26994468D
S11319E06344408C181A10BD054A064B44329021BA
S11319F00548FEF7E5FD038C408C181AF3E7C04652
S1131A0014410000BC4000008440000010B5041ED6
S1131A1007D0FFF7D9FFE369013B984208D00020C3
S1131A2010BD044A044B6832A2210448FEF7C8FDE5
S1131A300120F5E714410000BC4000008440000090
S1131A40F0B5DE4657464E464546E0B583B082467D
S1131A508B469046002908D00F68002F0CD0B94659
S1131A6004250023009301930EE0514A514B0C329C
S1131A70D0215148FEF7A4FD4D4A504B0C32D121E0
S1131A804D48FEF79DFD0135202D1FD829007943CF
S1131A90404601F021FF84B2002C00D1013429001A
S1131AA06143404601F018FFC61B611C6943404670
S1131AB001F012FF381AB04202D20134A4B2060077
S1131AC04E45E0D8B14600950194DCE76421380026
S1131AD001F002FF43001818484567D35046FFF74A
S1131AE057FF374A11688023DB000B4313605346CA
S1131AF0DB780C2293435246D370009B043B032BA8
S1131B0005D8D37A02221343DBB25246D37253462A
S1131B109A7A1F218A43009B013BDBB2134352464E
S1131B209372937A8B4301990A0AD2B213435246B1
S1131B301370CBB253709178172291435B469B7913
S1131B409B00133A13400B435A461279002A03D0E0
S1131B50134310221343DBB25246937013782022AE
S1131B6093435246137012785B465B795B012021E4
S1131B700B40134352461370D378DBB25A46D279E2
S1131B80002A02D008221343DBB25A46127A002AF2
S1131B9002D004221343DBB25246D370002003B0B8
S1131BA0F0BCBB46B246A946A046F0BD0548F6E7E0
S1131BB094410000303E000084400000C440000016
S1131BC034800440B504000010B503795B06FCD5ED
S1131BD0FFF7DEFE024A136802490B40136010BD92
S1131BE034800440FFFBFFFF10B5002809D0E12337
S1131BF05B0203600023037143718371C371037239
S1131C0010BD044AA821044B183249000348FEF7CA
S1131C10D7FCC04694410000303E000084400000E0
S1131C20F0B5DE464F464646C0B584B083460F1E27
S1131C30914605D08846042400230393029309E0C7
S1131C40324AAE21324B303249003248FEF7B8FCFA
S1131C500134E4B2202C21D8019439006143484670
S1131C6001F03AFE85B2002D00D10135290061430F
S1131C70484601F031FEC61B691C6143484601F029
S1131C802BFE381AB04202D20135ADB206004645E9
S1131C90DED80395B046019B0293D9E7642138004E
S1131CA001F01AFE4300181840452DD95B46D97837
S1131CB0C9B2DB780C2293435A46D370029B043B8F
S1131CC0032B05D8D37A02221343DBB25A46D372CC
S1131CD05B469A7A1F208243029B013BDBB213438B
S1131CE05A469372937A83430398020AD2B21343F7
S1131CF05A461370C3B25370D170002004B0E0BCD4
S1131D00BB46B146A846F0BD0348F7E7944100003E
S1131D10CC40000084400000B5040000074B19408B
S1131D2003780B43DBB20370C3780A0A1343DBB2B4
S1131D30C3708379090C194381717047C0F00F0097
S1131D40064B194003788B430370C3780A0A934304
S1131D50C3708379090C8B4383717047C0F00F0003
S1131D6003000078DA78120210439B791B041843AD
S1131D70014B18407047C046C0F00F00037940790A
S1131D8000021843704782B06B46DA1D00231370BB
S1131D9013780133DBB213700B0403D58023437132
S1131DA00A4B19404B0403D540234371084B194097
S1131DB0CB0604D01F230B4003711F239943002932
S1131DC002D1002002B070470248FBE7FF7FFFFF0B
S1131DD0FFBFFFFFB4040000F8B505000C1E26D0B9
S1131DE00379DB072AD42B799B0736D42B791B077D
S1131DF044D42B79DB0602D5EB78DB064FD42B7960
S1131E009B0602D5EB789B065FD42D23E35C042B61
S1131E1003D02D23E35C052B03D1A369002B00D150
S1131E20BFE02B795BB2002B00DAC9E0F8BD7B4A36
S1131E307B4B44327B497C48FEF7C2FB2D230522B1
S1131E40CA540121FFF79FFF666A002ECBD0A36A14
S1131E50764A21002800B047C5E72D230422E25426
S1131E6002212800FFF78FFF666A002EBED0A36A06
S1131E706F4A21002800B047B8E7EB792B799B061D
S1131E80FBD408212800FFF77EFF666A002EB0D03D
S1131E909722A36AD20021002800B047A9E71021A5
S1131EA02800FFF770FF2369002B08D0666A002E14
S1131EB0A5D0A36A5F4A21002800B0479FE780218C
S1131EC049012800FFF73CFFF0E70126002E1ED051
S1131ED02369002B1BD0E16801222800FFF728FDAD
S1131EE0E3680133E3602369013B2361013EF6B2F9
S1131EF02369002BEAD12D330222E254676A002FB2
S1131F00E4D0A36A4C4A21002800B847DEE7A3695D
S1131F10002B22D12369002B00D076E7A2210903EC
S1131F202800FFF70DFFAB789B0700D46DE78021F5
S1131F3049022800FFF704FF67E700236384238C2A
S1131F40EA79A169CA54238C0133E269934225D00A
S1131F50238C01339BB223843E00771EFFB2002EF4
S1131F6000D152E72000FFF751FD002807D0666A30
S1131F70002E04D0A36A314A21002800B047200073
S1131F80FFF744FD0028DAD0638C0133E269934201
S1131F90D3D0638C01339BB26384D0E700232384C2
S1131FA0DAE7A22109032800FFF7CAFEAB789B07F2
S1131FB000D436E7802149022800FFF7C1FE30E74C
S1131FC0EB785BB2002B00DB30E70126002E00D15A
S1131FD02CE76368002B00D128E721680122280040
S1131FE0FFF7BEFC2368013323606368013B636031
S1131FF0013EF6B26368002BE8D12C330022E25490
S1132000EB787F321340EB70676A002FDED0A36A4F
S11320100B4A21002800B847D8E7C0469441000085
S1132020BC4000005E03000084400000BB040000CC
S1132030BA040000BC040000B3040000B7040000AC
S1132040B204000010B500290ED1094A094B5C32D4
S113205009490A48FEF7B4FA03795BB2002BFBDAAC
S11320600B78C37122000131541E002AF4D110BD33
S1132070944100007C400000050200008440000000
S113208070B504000D1E16D0561E002A33D02379D5
S11320909B062BD42000FFF771FE030713D44307DC
S11320A018D483071CD4C307F1D501212000FFF7FE
S11320B06AFE12480DE0124A8521124B70328900E3
S11320C01148FEF77DFA08212000FFF75CFE9720F7
S11320D0C00070BD04212000FFF755FE0B48F8E74F
S11320E002212000FFF74FFE0948F2E7E3792B7045
S11320F032000135C8E70020EBE7C046BB0400000E
S1132100944100007C40000084400000B9040000B9
S1132110BA040000F8B507000C0016001D000029E1
S113212019D030220021200001F09EFD2D2302222F
S1132130E254013B0022E2546662A5623800FFF7D4
S113214027FC084B8000C450074A5A60074B802282
S113215052011A60F8BD064A064B04320649074884
S1132160FEF72EFA5CE0FF1FD91D000000E100E03D
S113217014420000BC400000410200008440000002
S113218010B5040000290ED0002A13D08A61CB6157
S113219000230B844B84A2210903FFF7BFFDA3781E
S11321A09B070ED410BD0A4A0A4B20320A490B4839
S11321B0FEF706FA064A0A4B20320A490748FEF798
S11321C0FFF9802149022000FFF7A8FDEAE7C04695
S11321D014420000BC4000005E0200008440000085
S11321E0DC4000005F02000070B505000C1E09D041
S11321F02D23CB5C022B0CD00023A361E361238449
S1132200638470BD094A0A4B40320A490A48FEF702
S1132210D7F9A2210903FFF793FDAB789B07EBD510
S1132220802149022800FFF78BFDE5E714420000F6
S1132230BC400000730200008440000010B5002977
S113224018D0002A1DD05368002B21D01368002B0E
S113225025D02C240C5D012C29D00B6053684B60D5
S11322608B602C230122CA5480210902FFF756FDFA
S1132270002010BD0F4A104B603210491048FEF781
S11322809FF90C4A0F4B60320F490D48FEF798F93D
S1132290084A0E4B60320E490948FEF791F9054A87
S11322A0A3210C4B603289000548FEF789F996207A
S11322B0C000DEE714420000BC40000089020000B8
S11322C084400000E84000008A020000F040000062
S11322D08B0200000041000010B50C1E08D0C02184
S11322E00902FFF72DFD002363602C22A35410BDC7
S11322F0024B034A03490448FEF762F9BC4000005C
S113230094420000A70200008440000010B5002998
S11323100BD0002A10D02C23CB5C002B13D08B685D
S113232049685B1A1360002010BD084A084B183234
S113233008490948FEF744F9044A084B1832084989
S11323400548FEF73DF90620EEE7C046944200003A
S1132350BC400000B1020000844000000C410000B9
S1132360B2020000F8B5CE46474680B580460C0060
S113237016009946002920D0002A25D05768002F3E
S11323802AD01368002B2ED02D228A5C032A00D178
S113239081E08A69002A67D080218901FFF7D0FC97
S11323A02000FFF711FB051E3CD03800AF4200D9D6
S11323B028003F1A0025002222E0394A394B3432E2
S11323C039493A48FEF7FCF8354AB121384B3432E2
S11323D089003648FEF7F4F8314A364B3432364930
S11323E03248FEF7EDF82E4A344B343234492F4844
S11323F0FEF7E6F8638C01339BB2638401326546D1
S113240082420FD2638C9BB2691C8C46A169CB5C5F
S113241031684B55618C0131E3699942EAD100235B
S11324206384EBE7002F07D033685B19E36027610F
S113243067612D230322E254802189014046FFF77E
S11324406DFC002F07D1666A002E04D0A36A1D4AD2
S113245021004046B0474B46002B1ED01D60002093
S1132460C0BCB946B046F8BDCB600F614F612D23A7
S11324700322CA54A3210903FFF750FC43469B7867
S11324809B0701D40025E6E7802149024046FFF777
S113249045FC0025DFE70C48E2E70020E0E7C04602
S11324A094420000BC400000C302000084400000CD
S11324B0E8400000F0400000C502000000410000B8
S11324C0C6020000B3040000B104000070B50500AA
S11324D00C1E08D08B69002B0CD0002323612D33F4
S11324E00222E25470BD0A4A0A4B58320A490B4888
S11324F0FEF766F8A3210903FFF722FCAB789B07DC
S1132500EBD5802149022800FFF71AFCE5E7C04615
S113251094420000BC4000003A03000084400000E4
S113252010B500290BD0002A10D02D23CB5C022B30
S113253014D04B6909695B1A1360002010BD084A66
S1132540084B743208490948FEF73AF8044AD42182
S1132550074B743289000548FEF732F80620EDE790
S113256094420000BC4000004F030000844000007F
S11325700C410000704710B5024B19685B680248B3
S1132580984710BD5CE0FF1F00A0064000B583B073
S113259001A8074B1B880380EFF3108272B6054B2A
S11325A01A60BFF36F8FFFF71BF803B000BDC0467E
S11325B02843000064E0FF1F00B583B000236A468F
S11325C01371537101A8FFF70BF8044B1B6883F3D5
S11325D01088BFF36F8F03B000BDC04664E0FF1FD7
S11325E0EFF3108272B6024B1A60BFF36F8F70471D
S11325F064E0FF1F034B1B6883F31088BFF36F8FE6
S11326007047C04664E0FF1F4378602293434370E1
S113261000207047054A136904218B431361BFF3FB
S11326204F8F30BFBFF36F8F0020704700ED00E085
S113263083783F2213408901C9B2194381704378DA
S1132640383A93434370094A136904210B431361D5
S11326504378BFF34F8F30BFBFF36F8F43781B07AF
S113266001D4002070470248FCE7C04600ED00E0BA
S11326703C0F000043786022934340221343DBB2B3
S1132680437000207047064A136904218B43136189
S1132690BFF34F8F30BFBFF36F8F00207047C0462A
S11326A000ED00E043780722934302221343DBB298
S11326B04370094A136904210B4313614378BFF340
S11326C04F8F30BFBFF36F8F43781B0701D40020B7
S11326D070470248FCE7C04600ED00E03C0F0000F4
S11326E043780722934303221343DBB24370094A1E
S11326F0136904210B4313614378BFF34F8F30BF39
S1132700BFF36F8F43781B0701D400207047024842
S1132710FCE7C04600ED00E03C0F000010B50B786C
S1132720002B06D14B78002B20D0837820229343B2
S1132730837043780722934304242343DBB243701A
S1132740837893431A000B78134383700B4A1369FD
S113275004210B4313614378BFF34F8F30BFBFF3A2
S11327606F8F43781B0707D4002010BD8378202285
S11327701343DBB28370DCE70148F6E700ED00E0C9
S11327803C0F0000020003681B78002005E00130C4
S1132790C0B21368591C11605B78202BF7D0092B49
S11327A0F5D00A2BF3D00D2BF1D00B2BEFD00C2B43
S11327B0EDD07047F0B5C64600B582B014001E00D7
S11327C008AB1B789846451C00230370002A21D0CF
S11327D00F68002F01D000240DE030334370012432
S11327E0200002B080BCB846F0BD3023591A2970CD
S11327F001340135019F002FF2D03100380001F07F
S1132800F5F801903100380001F0D6F90029ECDB2D
S11328103031ECE70F68002F0DD1302343700124D1
S1132820DEE74246002A13D04122D3180A3B2B701C
S1132830013401350700002FD2D03100380001F0F7
S11328404BF803007343FB1A092BEAD83033EEE745
S11328506122EAE7F0B5DE4657464E464546E0B506
S113286091B00700039191461D0000230693049341
S113287098460024A8E00026002000E0012000285B
S11328800DD17A1C79780B00303B092BF6D8B300B4
S11328909B195B00CB18303B1E001700EFE7791C37
S11328A07B782E2B22D03A00571C52789246642A09
S11328B027D0692A25D0662A23D0462A21D0782A0F
S11328C01FD0582A1DD06F2A1BD0622A19D0702A13
S11328D017D0752A15D0632A00D18BE0732A00D152
S11328E091E0012306A94846A8476CE000270A00A6
S11328F0002FD9D1511C5378303B092BF7D907004D
S1132900F6E75346642B09D0692B07D05346582B5E
S113291015D0782B13D001239B4625E0039B1A1D69
S113292003921B680593012300930933012205A92F
S113293007A8FFF73FFF804607AC4444E6E7534649
S1132940782B28D001239B46039B1A1D03921B68F6
S113295004935B4600931023002204A907A8FFF701
S113296029FF804607AC444453466F2B05D0622BA5
S113297003D0702B01D0752B1DD1039B1A1D03921C
S11329801B68049353466F2B0AD0622B27D0702BFD
S113299004D00A2305E000239B46D5E7603B00E012
S11329A008235A460092002204A907A8FFF702FF51
S11329B0804607AC44444346F31A202206A94846FD
S11329C0A847002C12D101373A78131E37D0252B93
S11329D000D150E7012306A94846A847F3E702239C
S11329E0DFE7013C012306A94846A8472278002ACC
S11329F0F7D1E8E7039B1A1D03921A78012306A96D
S1132A004846A847DFE7039B1A1D03921B689A46B2
S1132A10002BD8D0180001F07BF98046331A20220D
S1132A2006A94846A84705E001239C46E24406A9B6
S1132A304846A84753461A78002AF5D1C3E70698B2
S1132A4011B0F0BCBB46B246A946A046F0BDF0B5F5
S1132A50C64600B584B00192039102900378002B1E
S1132A6000D156E100250FE002A8FFF78BFE0BE032
S1132A705A1C0392029908785B78984200D046E188
S1132A800131029101320392039B1B78002B00D188
S1132A903DE1029B1B78002B00D138E103A8FFF72E
S1132AA071FE041EE0D1039B1A78252AE0D15A78DE
S1132AB0252ADDD00133039307000026039A1378F7
S1132AC0002B4ED07C2121424BD1303BD9B2482936
S1132AD042D88B009049CB589F46002F0FD1BB00A2
S1132AE0DB195B00039A11785B18303B1F00531C01
S1132AF003935378303BDBB2092BF0D9DEE728008F
S1132B002BE0864B1C43013203920A26D6E720238E
S1132B101C43013203920A26D0E720231C430132CE
S1132B2003920826CAE720231C430132039210268D
S1132B30C4E720231C43013203920026BEE704238A
S1132B401C43002F00D1013701320392B6E708235A
S1132B501C4301320392B1E7280004B080BCB8469C
S1132B60F0BD7C221300234022420AD0002F00D162
S1132B706337082B28D0202B58D0042B03D02800EF
S1132B80EBE72800E9E7029E019B1A1D01921868F1
S1132B9002E0013302930F00791E002F0BD0029B39
S1132BA01A78002A07D0A207F3D45A1C02921B7881
S1132BB003700130EFE7A30700D565E7029BB3423A
S1132BC000D161E701355FE702A8FFF7DBFD029E54
S1132BD0019B1A1D0192186805E0531C0293137897
S1132BE0037001300F00791E002F14D0029A13785D
S1132BF0002B10D0202B0ED0092B0CD00A2B0AD07E
S1132C000D2B08D00B2B06D00C2B04D0A307E4D536
S1132C1001320292E6E7A30700D535E7029BB342EF
S1132C2000D131E70023037001352DE702A8FFF737
S1132C30A9FD029B002E01D0102E02D11A78302A51
S1132C4012D0002E03D11B78302B1BD00A26029BF6
S1132C501A782B2A18D02D2A41D101330293013F2F
S1132C6001235B4298463CE05A78782A01D0582ADE
S1132C70E7D1002F04D09A1C0292023F1026E0E70D
S1132C801026DEE70836E2E701330293013F012311
S1132C90984626E00B00413BDBB2052B1DD83739A3
S1132CA0CBB29E421FD97043C018013202926746CC
S1132CB0029A1178002916D07B1E9C46002F12D050
S1132CC00B00303BDBB2092BEBD90B00613BDBB2D1
S1132CD0052BDFD85739CBB2E3E73300E1E7012313
S1132CE098460020E4E743465843A30700D5CBE6C3
S1132CF0A30406D5019B1A1D01921B6818600135B7
S1132D00C2E6019B1A1D01921B681860F7E72800B0
S1132D1023E70120404220E72C430000202000004C
S1132D2010B5002901D0002308E0064B064A0749E4
S1132D300748FDF745FCC479CC5401339342FAD3D8
S1132D4010BDC0467C4000008044000079020000B1
S1132D505044000010B5002901D0002309E0064AC0
S1132D60064B183206490748FDF72AFCCC5CC471AF
S1132D7001339342FAD310BD804400007C4000002C
S1132D80410200005044000010B50100002000E0A2
S1132D900130022805D88200074B9B181B6B8B421D
S1132DA0F6D1022800D810BD034A044B3C32A121BD
S1132DB00348FDF705FCC04680440000644400005D
S1132DC05044000010B500280CD0428C92B2038C01
S1132DD09BB29A420DD9038CC26994466344408CD9
S1132DE0181A10BD054A064B5032A8210548FDF7B4
S1132DF0E7FB038C408C181AF3E7C04680440000BC
S1132E00BC4000005044000010B5041E07D0FFF77A
S1132E10D9FFE369013B984208D0002010BD044A61
S1132E20044B7432BA210448FDF7CAFB0120F5E7CC
S1132E3080440000BC40000050440000F8B5CE4679
S1132E40474680B505000E1E904600D172E00F681B
S1132E50002F00D175E03901100000F03DFD84B26F
S1132E60002C00D101342101404600F035FDC31B84
S1132E709946611C0901404600F02EFD381A484568
S1132E8002D20134A4B281466421380000F024FD4A
S1132E904300181848455BD32800FFF775FF8300EB
S1132EA02C48C018036A1A0C2B498C4662441168DA
S1132EB01B041B0C0120984003000B431360EB78A8
S1132EC00C229343EB702B7813329343220A13435F
S1132ED0DBB22B70E4B26C70AB78172293431A0008
S1132EE0B3799B0004210B4013433279002A03D0A9
S1132EF0134310221343DBB2AB702B78202293438D
S1132F007279520120210A4013432B70EB78DBB213
S1132F10F279002A02D008221343DBB2327A002A63
S1132F2002D004221343DBB2EB700020C0BCB946CC
S1132F30B046F8BD074A094B1432CC210848FDF7C6
S1132F403FFB044A074B1432CD210548FDF738FBFB
S1132F500548EBE70045000000700440303E0000E7
S1132F6050440000C4400000F503000010B503798C
S1132F705B06FCD50023C370FFF706FF83000748F8
S1132F80C018036A1A0C06498C46624411681B0473
S1132F901B0C012098408143116010BD00450000C6
S1132FA00070044010B5002809D0E1235B020360DF
S1132FB00023037143718371C371037210BD044A0A
S1132FC06C21044B2C32FF310348FDF7F9FAC0465B
S1132FD000450000303E000050440000F0B5C646F5
S1132FE000B506000D001700002934D009011000B7
S1132FF000F072FC84B2002C00D1013421013800AD
S113300000F06AFC431B9846611C0901380000F07B
S113301063FC281A404502D20134A4B280466421DC
S1133020280000F059FC4300181840451BD9F278D9
S1133030D2B2F3780C218B43F370337813318B4382
S1133040210A0B43DBB23370E4B27470F2700020D7
S113305080BCB846F0BD054A8221054B4432FF319D
S11330600448FDF7ADFA0448F2E7C0460045000005
S1133070CC40000050440000F5030000074B194009
S113308003780B43DBB20370C3780A0A1343DBB241
S1133090C3708379090C194381717047C0F00F0024
S11330A0064B194003788B430370C3780A0A934391
S11330B0C3708379090C8B4383717047C0F00F0090
S11330C0F8B504000D1E26D003799B072BD4237971
S11330D0DB073AD423791B074AD42379DB0602D5CC
S11330E0E378DB0651D423799B0602D5E3789B066B
S11330F063D42D23EB5C042B03D02D23EB5C052B35
S113310003D1AB69002B00D1C4E023795BB2002B5F
S113311000DACEE0F8BD7D4A7D4B58327D497E48C9
S1133120FDF74EFAE37923799B06FBD42D23042281
S1133130EA5400232B616E6A002EC8D0AB6A774A2A
S113314029002000B047C2E7E37923799B06FBD42A
S11331502D230522EA5400232B616E6A002EB9D078
S1133160F832AB6A920029002000B047B2E7E37955
S113317023799B06FBD46E6A002EAED0AB6A684AF4
S113318029002000B047A8E7E3792379DB06FBD4C4
S11331902B69002B0BD06E6A002EA4D02B69002B58
S11331A0A1D0AB6A5F4A29002000B0479BE7802189
S11331B049012000FFF774FFEDE70126002E1ED021
S11331C02B69002B1BD0E96801222000FFF7A8FD22
S11331D0EB680133EB602B69013B2B61013EF6B2D6
S11331E02B69002BEAD12D330222EA546F6A002F97
S11331F0E4D0AB6A4C4A29002000B847DEE7AB694B
S1133200002B22D12B69002B00D072E7A2210903E5
S11332102000FFF745FFA3789B0700D469E78021CE
S113322049022000FFF73CFF63E700236B842B8CEB
S1133230E279A969CA542B8C0133EA69934226D0F6
S11332402B8C01339BB22B843E00771EFFB2002EE1
S113325000D14EE72800FFF7D7FD002808D06E6A9A
S1133260002E05D0FC22AB6A920029002000B04752
S11332702800FFF7C9FD0028D9D06B8C0133EA6917
S11332809342D2D06B8C01339BB26B84CFE7002383
S11332902B84D9E7A32109032000FFF701FFA378BA
S11332A09B0700D431E7802149022000FFF7F8FE94
S11332B02BE7E3785BB2002B00DB2BE70126002E23
S11332C000D127E76B68002B00D123E7296801228E
S11332D02000FFF73FFD2B6801332B606B68013B37
S11332E06B60013EF6B26B68002BE8D12C330022F0
S11332F0EA54E3787F321340E3706F6A002FDED024
S1133300AB6A0A4A29002000B847D8E70045000004
S1133310BC400000AA03000050440000F303000076
S1133320F1030000F6030000EB030000EA030000D1
S113333003000078DA78120210439B791B041843C7
S1133340014B18407047C046C0F00F000379407924
S113335000021843704710B50C0043793F2119400F
S1133360230ADBB20B4343711723234201D00379B1
S1133370C379230701D50379C379FFF7E7FF044233
S113338001D1002010BD0148FCE7C046EE03000057
S113339010B507E003795BB2002BFBDA0B78C3713D
S11333A022000131541E002AF4D110BD70B504006E
S11333B00D1E13D0561E002A1CD023799B0614D44C
S11333C02000FFF7C3FF030716D4430716D483076F
S11333D016D4C307F1D5FD2080000EE0094A0A4B3C
S11333E070320A490A48FDF7EBF8E3792B70320092
S11333F00135DFE7002000E0064870BD0648FCE721
S11334000648FAE7004500007C4000004F02000037
S113341050440000F1030000F2030000F303000035
S1133420F8B507000C0016001D00002925D0302235
S11334300021200000F018FC2D230222E254013B5D
S11334400022E2546662A5623800FFF79DFC0E4B31
S11334508200D4500D4ADA600D4B18182023C3564D
S11334601A00803208D0002B06DB1F2213401E3ABC
S11334709A401300074A1360F8BD054A064B04320C
S113348006490748FDF79CF868E0FF1FC1300000BB
S11334908045000000E100E0BC4000008A0200001A
S11334A05044000010B5040000290ED0002A13D0A7
S11334B08A61CB6100230B844B84A2210903FFF7AB
S11334C0DDFDA3789B070ED410BD0A4A0A4B2432B3
S11334D00A490B48FDF774F8064A0A4B24320A4994
S11334E00748FDF76DF8802149022000FFF7C6FD6B
S11334F0EAE7C04680450000BC400000A602000088
S113350050440000DC400000A702000070B5050034
S11335100C1E09D02D23CB5C022B0CD00023A361FD
S1133520E3612384638470BD094A0A4B44320A4927
S11335300A48FDF745F8A2210903FFF7B1FDAB786E
S11335409B07EBD5802149022800FFF7A9FDE5E799
S113355080450000BC400000BB0200005044000055
S113356010B5002918D0002A1ED05368002B22D091
S11335701368002B26D02C240C5D012C29D00B6061
S113358053684B608B602C230122CA5480210902AA
S1133590FFF774FD002010BD0F4AB4310F4B6032A9
S11335A089000F48FDF70CF80B4A0E4B60320E49A8
S11335B00B48FDF705F8084A0C4B60320C490848E3
S11335C0FCF7FEFF044A0B4B60320B490448FCF73E
S11335D0F7FFFA208000DEE780450000BC400000D1
S11335E050440000E8400000D1020000F040000018
S11335F0D202000000410000D302000010B50C1EEE
S113360008D0C0210902FFF74BFD002363602C2280
S1133610A35410BD024B034A03490448FCF7D0FFEE
S1133620BC40000000460000EE02000050440000D0
S113363010B500290BD0002A11D02C23CB5C002B11
S113364014D08B6849685B1A1360002010BD084AC7
S1133650BE31084B183289000748FCF7B1FF044A11
S1133660064B183206490448FCF7AAFF0620EDE78A
S113367000460000BC400000504400000C41000023
S1133680F9020000F8B5CE46474680B580460C00E6
S113369016009946002920D0002A25D01368002B53
S11336A029D05768002F2ED02D228A5C032A00D1FE
S11336B081E08A69002A67D080218901FFF7F0FC44
S11336C02000FFF77FFB051E3CD03800AF4200D935
S11336D028003F1A0025002222E0394A394B3432AF
S11336E039493A48FCF76CFF354A394B3432394989
S11336F03648FCF765FF324AC321374B3432890020
S11337003248FCF75DFF2E4A344B343234492F489B
S1133710FCF756FF638C01339BB263840132654628
S113372082420FD2638C9BB2691C8C46A169CB5C2C
S113373031684B55618C0131E3699942EAD1002328
S11337406384EBE7002F07D033685B19E3602761DC
S113375067612D230322E254802189014046FFF74B
S11337608DFC002F07D1666A002E04D0A36A1D4A7F
S113377021004046B0474B46002B1ED01D60002060
S1133780C0BCB946B046F8BDCB600F614F612D2374
S11337900322CA54A3210903FFF770FC43469B7814
S11337A09B0701D40025E6E7802149024046FFF744
S11337B065FC0025DFE70C48E2E70020E0E7C046AF
S11337C000460000BC4000000A0300005044000012
S11337D0E84000000B03000000410000F04000003E
S11337E00D030000EB030000E903000070B50500C1
S11337F00C1E08D08B69002B0CD0002323612D33C1
S11338000222E25470BD0A4A0A4B54320A490B4858
S1133810FCF7D6FEA3210903FFF742FCAB789B0714
S1133820EBD5802149022800FFF73AFCE5E7C046C2
S113383000460000BC40000081030000504400002A
S113384010B500290BD0002A10D02D23CB5C022BFD
S113385013D04B6909695B1A1360002010BD084A34
S1133860084B703208490948FCF7AAFE044A084B81
S1133870703208490548FCF7A3FE0620EEE7C0466F
S113388000460000BC4000009603000050440000C5
S11338900C41000097030000704710B5024B5968B3
S11338A0DB680248984710BD68E0FF1F00B006407F
S11338B010B5FFF7F2FF10BD10B5034B9968DB6834
S11338C00248984710BDC04668E0FF1F00C006408C
S11338D010B5FFF7F1FF10BD002243088B4274D3EB
S11338E003098B425FD3030A8B4244D3030B8B42FD
S11338F028D3030C8B420DD3FF22090212BA030C06
S11339008B4202D31212090265D0030B8B4219D3E6
S113391000E0090AC30B8B4201D3CB03C01A524106
S1133920830B8B4201D38B03C01A5241430B8B424E
S113393001D34B03C01A5241030B8B4201D30B0337
S1133940C01A5241C30A8B4201D3CB02C01A52415E
S1133950830A8B4201D38B02C01A5241430A8B4221
S113396001D34B02C01A5241030A8B4201D30B020A
S1133970C01A5241CDD2C3098B4201D3CB01C01A24
S1133980524183098B4201D38B01C01A524143092E
S11339908B4201D34B01C01A524103098B4201D31C
S11339A00B01C01A5241C3088B4201D3CB00C01A89
S11339B0524183088B4201D38B00C01A5241430801
S11339C08B4201D34B00C01A5241411A00D2014626
S11339D0524110467047FFE701B5002000F0F0F8AF
S11339E002BDC0460029F7D076E7704703460B4373
S11339F07FD4002243088B4274D303098B425FD3E4
S1133A00030A8B4244D3030B8B4228D3030C8B420F
S1133A100DD3FF22090212BA030C8B4202D31212F5
S1133A20090265D0030B8B4219D300E0090AC30BCA
S1133A308B4201D3CB03C01A5241830B8B4201D377
S1133A408B03C01A5241430B8B4201D34B03C01A60
S1133A505241030B8B4201D30B03C01A5241C30AD8
S1133A608B4201D3CB02C01A5241830A8B4201D349
S1133A708B02C01A5241430A8B4201D34B02C01A33
S1133A805241030A8B4201D30B02C01A5241CDD2D8
S1133A90C3098B4201D3CB01C01A524183098B4223
S1133AA001D38B01C01A524143098B4201D34B010C
S1133AB0C01A524103098B4201D30B01C01A52416F
S1133AC0C3088B4201D3CB00C01A524183088B42F6
S1133AD001D38B00C01A524143088B4201D34B00DF
S1133AE0C01A5241411A00D2014652411046704751
S1133AF05DE0CA0F00D04942031000D34042534056
S1133B0000229C4603098B422DD3030A8B4212D315
S1133B10FC22890112BA030A8B420CD38901921147
S1133B208B4208D3890192118B4204D389013AD084
S1133B30921100E08909C3098B4201D3CB01C01A59
S1133B40524183098B4201D38B01C01A524143096C
S1133B508B4201D34B01C01A524103098B4201D35A
S1133B600B01C01A5241C3088B4201D3CB00C01AC7
S1133B70524183088B4201D38B00C01A5241D9D2DF
S1133B8043088B4201D34B00C01A5241411A00D260
S1133B900146634652415B10104601D34042002B5C
S1133BA000D54942704763465B1000D3404201B5DB
S1133BB0002000F005F802BD0029F8D016E7704790
S1133BC07047C046F0B5C64600B50F2A41D9032751
S1133BD00D003E0005430C0003002E402F423DD152
S1133BE01500103D2D09A8462D01AC4684442768D4
S1133BF01D001F6067685F60A7689F60E7681034F6
S1133C00DF6010336545F2D145460F230C2401359E
S1133C102D01491913404519144222D08C59AC5135
S1133C2004369C1B032CF9D8043B9B0801339B00EE
S1133C30ED18C91803231A40561E002A06D0002383
S1133C40CC5C1A00EC5401339642F9D180BCB846DE
S1133C50F0BD0500561E002AF1D1F7E70500561EF7
S1133C60EDE71A00F6E7C046F0B50500830749D032
S1133C70541E002A45D003000326CAB202E00135CF
S1133C80013C3ED301332A703342F8D1032C30D99E
S1133C90FF220A40150215432A0415430F2C34D978
S1133CA02700103F3F093E01B4461E001A0010369B
S1133CB06644156055609560D5601032B242F8D103
S1133CC001373F01DB190F270C22274022403C001B
S1133CD0002A0ED03E1FB608B400A4461A001C1DCC
S1133CE0644420C2A242FCD103240136B6009B19CD
S1133CF03C40002C05D0C9B21C19197001339C42F8
S1133D00FBD1F0BD03001400C0E72700E2E7C04682
S1133D1010B583070AD00300032102E001330B42EC
S1133D2005D01A78002AF9D1181A10BD03001968B1
S1133D300C4A0D4C8A188A4322420FD15968094A09
S1133D4004338A188A43224208D15968054A043345
S1133D508A188A432242F1D000E001331A78002AFB
S1133D60FBD1E1E7FFFEFEFE8080808000127A0036
S1133D7000048000070200000000000001000000B1
S1133D800103000000000110000300000000040013
S1133D9000000000000C000002020100000000000E
S1133DA00000000068656C6C6F20776F726C642E85
S1133DB00D0A0000415353455254204552524F526C
S1133DC0202220257320223A2066696C6520222552
S1133DD07322204C696E6520222564222066756E4C
S1133DE06374696F6E206E616D65202225732220D5
S1133DF00A000000675F7874616C30467265710078
S1133E00647269766572732F66736C5F636C6F633B
S1133E106B2E6300675F7874616C33324672657130
S1133E20000000006D6367706C6C30636C6B0000A5
S1133E30636F6E66696700001C0A00001C0A0000BC
S1133E40300A0000300A0000520A0000580A00003C
S1133E50760A00005E0A0000640A00006A0A000094
S1133E60700A00007C0A0000160A00007C1300009F
S1133E70BC130000DA130000AC130000CA130000E6
S1133E80E2130000EA13000020140000434C4F43E7
S1133E904B5F4765744D6367457874436C6B46723A
S1133EA065710000434C4F434B5F4765744F736328
S1133EB0304572436C6B467265710000434C4F434E
S1133EC04B5F476574457233326B436C6B46726566
S1133ED0710000008002DC020005B8058007950827
S1133EE0000A710B434C4F434B5F476574506C6C35
S1133EF03046726571000000434C4F434B5F456E82
S1133F0061626C65506C6C3000000000127A000035
S1133F1097980000C0C62D00404B4C00434C4F43C3
S1133F204B5F5365745062654D6F6465000000001B
S1133F30434C4F434B5F426F6F74546F5065654DF4
S1133F406F6465000001010304040404000102031A
S1133F50040404040101020101010101000101033F
S1133F600404040400010103040506060404040413
S1133F7004050606040404040405060706060606EA
S1133F800606060664657669636520213D2044457E
S1133F904255475F434F4E534F4C455F4445564946
S1133FA043455F545950455F4E4F4E450000000055
S1133FB0647269766572732F66736C5F646562758B
S1133FC0675F636F6E736F6C652E63004462674353
S1133FD06F6E736F6C655F496E69740010B500296C
S1133FE005D004688C439340194021430160BFF31A
S1133FF06F8FBFF34F8F10BD4E554C4C20213D2089
S1134000696F0000647269766572732F66736C5F02
S1134010696F2E6300000000494F5F496E697400A8
S113402062756620213D204E554C4C0064726976C1
S11340306572732F66736C5F6C6F672E630000008C
S1134040636820213D204E554C4C00004C4F475F87
S113405050757368000000004C4F475F52656164FF
S11340604C696E65000000004C4F475F5265616407
S11340704368617261637465720000006461746115
S113408000000000647269766572732F66736C5F5A
S11340906C707363692E6300696E7374616E63651B
S11340A0203C2041525241595F53495A4528735F7D
S11340B06C707363694261736573290068616E642F
S11340C06C650000636F6E6669672D3E626175649E
S11340D0526174655F4270730000000072696E671C
S11340E042756666657200007866657200000000BD
S11340F0786665722D3E6461746153697A65000067
S1134100786665722D3E646174610000636F756E3C
S1134110740000004C505343495F526561644E6F14
S11341206E426C6F636B696E670000004C505343C2
S1134130495F57726974654E6F6E426C6F636B6949
S11341406E6700004C505343495F476574496E7372
S113415074616E63650000004C505343495F5472B0
S1134160616E73666572476574527852696E674210
S113417075666665724C656E677468004C5053438F
S1134180495F5472616E73666572497352785269FD
S11341906E6742756666657246756C6C0000000059
S11341A04C505343495F496E697400004C5053436B
S11341B0495F47657444656661756C74436F6E66E8
S11341C0696700004C505343495F536574426175FD
S11341D064526174650000004C505343495F54724B
S11341E0616E7366657248616E646C654952510014
S11341F04C505343495F5772697465426C6F636BEB
S1134200696E67004C505343495F52656164426C68
S11342106F636B696E6700004C505343495F54727F
S1134220616E7366657243726561746548616E643C
S11342306C6500004C505343495F5472616E736661
S11342406572537461727452696E6742756666650D
S1134250720000004C505343495F5472616E7366A0
S1134260657253746F7052696E67427566666572E3
S1134270000000004C505343495F5472616E7366F2
S1134280657253656E644E6F6E426C6F636B696EDC
S1134290670000004C505343495F5472616E73666B
S11342A0657241626F727453656E64004C5053437F
S11342B0495F5472616E7366657247657453656EC7
S11342C064436F756E7400004C505343495F5472DD
S11342D0616E73666572526563656976654E6F6E6D
S11342E0426C6F636B696E67000000004C5053436F
S11342F0495F5472616E7366657241626F72745283
S113430065636569766500004C505343495F547298
S1134310616E736665724765745265636569766537
S1134320436F756E7400000001010000DA2A00007A
S1134330DA2A0000DA2A0000DA2A0000DA2A000069
S1134340DA2A0000DA2A0000DA2A0000DA2A000059
S1134350DA2A0000582B0000582B0000582B0000CC
S1134360582B0000582B0000582B0000582B00003D
S1134370582B0000582B0000582B0000582B00002D
S1134380582B0000582B0000582B0000582B00001D
S1134390582B0000582B0000582B0000582B00000D
S11343A0582B0000582B0000582B0000582B0000FD
S11343B0582B0000582B0000582B0000582B0000ED
S11343C0582B0000582B0000582B0000262B00000F
S11343D0582B0000582B0000582B0000582B0000CD
S11343E0582B0000582B0000582B0000582B0000BD
S11343F0582B0000582B00003E2B0000022B00001D
S1134400582B0000582B0000582B0000582B00009C
S1134410322B0000582B0000582B0000582B0000B2
S1134420582B0000582B00001A2B0000582B0000BA
S1134430582B0000582B00004E2B0000582B000076
S11344400E2B0000582B0000582B0000262B0000D8
S1134450647269766572732F66736C5F75617274CA
S11344602E630000696E7374616E6365203C207571
S11344706172744172726179436F756E74000000E9
S1134480554152545F526561644E6F6E426C6F6366
S11344906B696E6700000000554152545F577269A2
S11344A074654E6F6E426C6F636B696E67000000DB
S11344B00000000000B0064000C0064055415254C0
S11344C05F476574496E7374616E63650000000034
S11344D0554152545F5472616E73666572476574D8
S11344E0527852696E674275666665724C656E678E
S11344F074680000554152545F5472616E7366656E
S1134500724973527852696E67427566666572467F
S1134510756C6C00554152545F496E69740000001B
S1134520000000000B0034100C00341055415254AC
S11345305F47657444656661756C74436F6E666944
S113454067000000554152545F53657442617564BD
S11345505261746500000000554152545F54726109
S11345606E7366657248616E646C654952510000F1
S1134570554152545F52656164426C6F636B696E5E
S113458067000000554152545F5472616E73666552
S11345907243726561746548616E646C6500000005
S11345A0800D0E00554152545F5472616E736665FE
S11345B072537461727452696E674275666665728D
S11345C000000000554152545F5472616E73666579
S11345D07253746F7052696E6742756666657200D5
S11345E0554152545F5472616E7366657253656EC1
S11345F0644E6F6E426C6F636B696E6700000000FF
S1134600554152545F5472616E7366657241626FB4
S1134610727453656E640000554152545F54726164
S11346206E7366657247657453656E64436F756E29
S113463074000000554152545F5472616E73666594
S113464072526563656976654E6F6E426C6F636B1B
S1134650696E6700554152545F5472616E736665AA
S11346607241626F72745265636569766500000019
S1134670554152545F5472616E7366657247657436
S110468052656365697665436F756E74005D
S1074690F8B5C0466F
S1074694F8B5C0466B
S10F46980080000000093D00000040010B
S9030410E8
